{
  "address": "0xB4a9aAE8cF5557945eD7E2a0215EfadbD82f7Ba2",
  "abi": [
    {
      "inputs": [
        {
          "internalType": "address",
          "name": "_router",
          "type": "address"
        },
        {
          "internalType": "address",
          "name": "_wbtcAddress",
          "type": "address"
        }
      ],
      "stateMutability": "nonpayable",
      "type": "constructor"
    },
    {
      "inputs": [
        {
          "internalType": "address",
          "name": "owner",
          "type": "address"
        }
      ],
      "name": "OwnableInvalidOwner",
      "type": "error"
    },
    {
      "inputs": [
        {
          "internalType": "address",
          "name": "account",
          "type": "address"
        }
      ],
      "name": "OwnableUnauthorizedAccount",
      "type": "error"
    },
    {
      "inputs": [],
      "name": "ReentrancyGuardReentrantCall",
      "type": "error"
    },
    {
      "inputs": [
        {
          "internalType": "address",
          "name": "token",
          "type": "address"
        }
      ],
      "name": "SafeERC20FailedOperation",
      "type": "error"
    },
    {
      "anonymous": false,
      "inputs": [
        {
          "indexed": true,
          "internalType": "address",
          "name": "previousOwner",
          "type": "address"
        },
        {
          "indexed": true,
          "internalType": "address",
          "name": "newOwner",
          "type": "address"
        }
      ],
      "name": "OwnershipTransferred",
      "type": "event"
    },
    {
      "anonymous": false,
      "inputs": [
        {
          "indexed": true,
          "internalType": "bytes32",
          "name": "messageId",
          "type": "bytes32"
        },
        {
          "indexed": true,
          "internalType": "uint64",
          "name": "sourceChainSelector",
          "type": "uint64"
        },
        {
          "indexed": true,
          "internalType": "address",
          "name": "sender",
          "type": "address"
        },
        {
          "indexed": false,
          "internalType": "address",
          "name": "token",
          "type": "address"
        },
        {
          "indexed": false,
          "internalType": "uint256",
          "name": "amount",
          "type": "uint256"
        }
      ],
      "name": "TokensReceived",
      "type": "event"
    },
    {
      "anonymous": false,
      "inputs": [
        {
          "indexed": true,
          "internalType": "bytes32",
          "name": "messageId",
          "type": "bytes32"
        },
        {
          "indexed": true,
          "internalType": "uint64",
          "name": "destinationChainSelector",
          "type": "uint64"
        },
        {
          "indexed": true,
          "internalType": "address",
          "name": "receiver",
          "type": "address"
        },
        {
          "indexed": false,
          "internalType": "address",
          "name": "token",
          "type": "address"
        },
        {
          "indexed": false,
          "internalType": "uint256",
          "name": "amount",
          "type": "uint256"
        },
        {
          "indexed": false,
          "internalType": "address",
          "name": "feeToken",
          "type": "address"
        }
      ],
      "name": "TokensTransferred",
      "type": "event"
    },
    {
      "inputs": [
        {
          "internalType": "uint64",
          "name": "chainSelector",
          "type": "uint64"
        }
      ],
      "name": "addSupportedChain",
      "outputs": [],
      "stateMutability": "nonpayable",
      "type": "function"
    },
    {
      "inputs": [
        {
          "components": [
            {
              "internalType": "bytes32",
              "name": "messageId",
              "type": "bytes32"
            },
            {
              "internalType": "uint64",
              "name": "sourceChainSelector",
              "type": "uint64"
            },
            {
              "internalType": "bytes",
              "name": "sender",
              "type": "bytes"
            },
            {
              "internalType": "bytes",
              "name": "data",
              "type": "bytes"
            },
            {
              "components": [
                {
                  "internalType": "address",
                  "name": "token",
                  "type": "address"
                },
                {
                  "internalType": "uint256",
                  "name": "amount",
                  "type": "uint256"
                }
              ],
              "internalType": "struct Client.EVMTokenAmount[]",
              "name": "destTokenAmounts",
              "type": "tuple[]"
            }
          ],
          "internalType": "struct Client.Any2EVMMessage",
          "name": "message",
          "type": "tuple"
        }
      ],
      "name": "ccipReceive",
      "outputs": [],
      "stateMutability": "nonpayable",
      "type": "function"
    },
    {
      "inputs": [],
      "name": "owner",
      "outputs": [
        {
          "internalType": "address",
          "name": "",
          "type": "address"
        }
      ],
      "stateMutability": "view",
      "type": "function"
    },
    {
      "inputs": [
        {
          "internalType": "uint64",
          "name": "chainSelector",
          "type": "uint64"
        }
      ],
      "name": "removeSupportedChain",
      "outputs": [],
      "stateMutability": "nonpayable",
      "type": "function"
    },
    {
      "inputs": [],
      "name": "renounceOwnership",
      "outputs": [],
      "stateMutability": "nonpayable",
      "type": "function"
    },
    {
      "inputs": [],
      "name": "router",
      "outputs": [
        {
          "internalType": "contract IRouterClient",
          "name": "",
          "type": "address"
        }
      ],
      "stateMutability": "view",
      "type": "function"
    },
    {
      "inputs": [
        {
          "internalType": "uint64",
          "name": "",
          "type": "uint64"
        }
      ],
      "name": "supportedChains",
      "outputs": [
        {
          "internalType": "bool",
          "name": "",
          "type": "bool"
        }
      ],
      "stateMutability": "view",
      "type": "function"
    },
    {
      "inputs": [
        {
          "internalType": "address",
          "name": "newOwner",
          "type": "address"
        }
      ],
      "name": "transferOwnership",
      "outputs": [],
      "stateMutability": "nonpayable",
      "type": "function"
    },
    {
      "inputs": [
        {
          "internalType": "uint64",
          "name": "destinationChainSelector",
          "type": "uint64"
        },
        {
          "internalType": "address",
          "name": "receiver",
          "type": "address"
        },
        {
          "internalType": "address",
          "name": "token",
          "type": "address"
        },
        {
          "internalType": "uint256",
          "name": "amount",
          "type": "uint256"
        }
      ],
      "name": "transferTokens",
      "outputs": [
        {
          "internalType": "bytes32",
          "name": "messageId",
          "type": "bytes32"
        }
      ],
      "stateMutability": "nonpayable",
      "type": "function"
    },
    {
      "inputs": [],
      "name": "wbtcAddress",
      "outputs": [
        {
          "internalType": "address",
          "name": "",
          "type": "address"
        }
      ],
      "stateMutability": "view",
      "type": "function"
    },
    {
      "stateMutability": "payable",
      "type": "receive"
    }
  ],
  "transactionHash": "0x38e14f5862ceaaf1fd5a481e1ba6eb10d86a75d55c001ed143d9dddf4a8695b6",
  "args": [
    "0x554472a2720E5E7D5D3C817529aBA05EEd5F82D8",
    "0x50b7545627a5162F82A992c33b87aDc75187B218"
  ],
  "numDeployments": 1,
  "solcInputHash": "ba8c400a2b1aabcd785e89f90ece9ca0",
  "bytecode": "0x60a060405234801561001057600080fd5b506040516110f03803806110f083398101604081905261002f916100fa565b6001600055338061005a57604051631e4fbdf760e01b81526000600482015260240160405180910390fd5b6100638161008c565b506001600160a01b03918216608052600280546001600160a01b0319169190921617905561012d565b600180546001600160a01b038381166001600160a01b0319831681179093556040519116919082907f8be0079c531659141344cd1fd0a4f28419497f9722a3daafe3b4186f6b6457e090600090a35050565b80516001600160a01b03811681146100f557600080fd5b919050565b6000806040838503121561010d57600080fd5b610116836100de565b9150610124602084016100de565b90509250929050565b608051610f8c610164600039600081816101850152818161028501528181610576015281816106f401526107700152610f8c6000f3fe6080604052600436106100955760003560e01c8063f2fde38b11610059578063f2fde38b14610153578063f887ea4014610173578063f9c3f332146101a7578063fb5c3312146101e7578063fd0384b21461020757600080fd5b80634d9fb4f6146100a157806361a2ac39146100c3578063715018a61461010057806385572ffb146101155780638da5cb5b1461013557600080fd5b3661009c57005b600080fd5b3480156100ad57600080fd5b506100c16100bc366004610a8f565b610235565b005b3480156100cf57600080fd5b506002546100e3906001600160a01b031681565b6040516001600160a01b0390911681526020015b60405180910390f35b34801561010c57600080fd5b506100c161025e565b34801561012157600080fd5b506100c1610130366004610c76565b610272565b34801561014157600080fd5b506001546001600160a01b03166100e3565b34801561015f57600080fd5b506100c161016e366004610d56565b6103c4565b34801561017f57600080fd5b506100e37f000000000000000000000000000000000000000000000000000000000000000081565b3480156101b357600080fd5b506101d76101c2366004610a8f565b60036020526000908152604090205460ff1681565b60405190151581526020016100f7565b3480156101f357600080fd5b506100c1610202366004610a8f565b6103ff565b34801561021357600080fd5b50610227610222366004610d73565b61042b565b6040519081526020016100f7565b61023d610872565b6001600160401b03166000908152600360205260409020805460ff19169055565b610266610872565b610270600061089f565b565b61027a6108f1565b336001600160a01b037f000000000000000000000000000000000000000000000000000000000000000016146102f75760405162461bcd60e51b815260206004820181905260248201527f4f6e6c7920726f757465722063616e2063616c6c20636369705265636569766560448201526064015b60405180910390fd5b600081604001518060200190518101906103119190610dc2565b608083015151909150156103b6576000826080015160008151811061033857610338610ddf565b60200260200101519050816001600160a01b031683602001516001600160401b031684600001517f1eb7d864650f669fdc7cb97942971fadf1983930d028aaa76b73c62547adcf58846000015185602001516040516103ac9291906001600160a01b03929092168252602082015260400190565b60405180910390a4505b506103c16001600055565b50565b6103cc610872565b6001600160a01b0381166103f657604051631e4fbdf760e01b8152600060048201526024016102ee565b6103c18161089f565b610407610872565b6001600160401b03166000908152600360205260409020805460ff19166001179055565b60006104356108f1565b6001600160401b03851660009081526003602052604090205460ff1661049d5760405162461bcd60e51b815260206004820152601f60248201527f44657374696e6174696f6e20636861696e206e6f7420737570706f727465640060448201526064016102ee565b6002546001600160a01b038481169116146104fa5760405162461bcd60e51b815260206004820152601d60248201527f4f6e6c792057425443207472616e736665727320737570706f7274656400000060448201526064016102ee565b6000821161054a5760405162461bcd60e51b815260206004820152601d60248201527f416d6f756e74206d7573742062652067726561746572207468616e203000000060448201526064016102ee565b61055f6001600160a01b03841633308561091b565b60405163095ea7b360e01b81526001600160a01b037f0000000000000000000000000000000000000000000000000000000000000000811660048301526024820184905284169063095ea7b3906044016020604051808303816000875af11580156105ce573d6000803e3d6000fd5b505050506040513d601f19601f820116820180604052508101906105f29190610df5565b506040805160a081019091526001600160a01b03851660c08201526000908060e08101604051602081830303815290604052815260200185856040516020016106509291906001600160a01b03929092168252602082015260400190565b604051602081830303815290604052815260200161066e868661097b565b815260200160006001600160a01b031681526020016106d5604051806020016040528062030d4081525060408051915160248084019190915281518084039091018152604490920190526020810180516001600160e01b03166397a657c960e01b17905290565b90526040516320487ded60e01b81529091506000906001600160a01b037f000000000000000000000000000000000000000000000000000000000000000016906320487ded9061072b908a908690600401610e5d565b602060405180830381865afa158015610748573d6000803e3d6000fd5b505050506040513d601f19601f8201168201806040525081019061076c9190610f3d565b90507f00000000000000000000000000000000000000000000000000000000000000006001600160a01b03166396f4e9f98289856040518463ffffffff1660e01b81526004016107bd929190610e5d565b60206040518083038185885af11580156107db573d6000803e3d6000fd5b50505050506040513d601f19601f820116820180604052508101906108009190610f3d565b604080516001600160a01b038881168252602082018890526000828401529151929550908816916001600160401b038a169186917f5cd428cbc8d5acf58afd9bfae1427845a7e32e017395a99d4b048977a727d9029181900360600190a4505061086a6001600055565b949350505050565b6001546001600160a01b031633146102705760405163118cdaa760e01b81523360048201526024016102ee565b600180546001600160a01b038381166001600160a01b0319831681179093556040519116919082907f8be0079c531659141344cd1fd0a4f28419497f9722a3daafe3b4186f6b6457e090600090a35050565b60026000540361091457604051633ee5aeb560e01b815260040160405180910390fd5b6002600055565b604080516001600160a01b0385811660248301528416604482015260648082018490528251808303909101815260849091019091526020810180516001600160e01b03166323b872dd60e01b179052610975908590610a02565b50505050565b60408051600180825281830190925260609160009190816020015b60408051808201909152600080825260208201528152602001906001900390816109965790505090506040518060400160405280856001600160a01b0316815260200184815250816000815181106109f0576109f0610ddf565b60209081029190910101529392505050565b600080602060008451602086016000885af180610a25576040513d6000823e3d81fd5b50506000513d91508115610a3d578060011415610a4a565b6001600160a01b0384163b155b1561097557604051635274afe760e01b81526001600160a01b03851660048201526024016102ee565b80356001600160401b0381168114610a8a57600080fd5b919050565b600060208284031215610aa157600080fd5b610aaa82610a73565b9392505050565b634e487b7160e01b600052604160045260246000fd5b604080519081016001600160401b0381118282101715610ae957610ae9610ab1565b60405290565b60405160a081016001600160401b0381118282101715610ae957610ae9610ab1565b604051601f8201601f191681016001600160401b0381118282101715610b3957610b39610ab1565b604052919050565b600082601f830112610b5257600080fd5b81356001600160401b03811115610b6b57610b6b610ab1565b610b7e601f8201601f1916602001610b11565b818152846020838601011115610b9357600080fd5b816020850160208301376000918101602001919091529392505050565b6001600160a01b03811681146103c157600080fd5b600082601f830112610bd657600080fd5b81356001600160401b03811115610bef57610bef610ab1565b610bfe60208260051b01610b11565b8082825260208201915060208360061b860101925085831115610c2057600080fd5b602085015b83811015610c6c5760408188031215610c3d57600080fd5b610c45610ac7565b8135610c5081610bb0565b8152602082810135818301529084529290920191604001610c25565b5095945050505050565b600060208284031215610c8857600080fd5b81356001600160401b03811115610c9e57600080fd5b820160a08185031215610cb057600080fd5b610cb8610aef565b81358152610cc860208301610a73565b602082015260408201356001600160401b03811115610ce657600080fd5b610cf286828501610b41565b60408301525060608201356001600160401b03811115610d1157600080fd5b610d1d86828501610b41565b60608301525060808201356001600160401b03811115610d3c57600080fd5b610d4886828501610bc5565b608083015250949350505050565b600060208284031215610d6857600080fd5b8135610aaa81610bb0565b60008060008060808587031215610d8957600080fd5b610d9285610a73565b93506020850135610da281610bb0565b92506040850135610db281610bb0565b9396929550929360600135925050565b600060208284031215610dd457600080fd5b8151610aaa81610bb0565b634e487b7160e01b600052603260045260246000fd5b600060208284031215610e0757600080fd5b81518015158114610aaa57600080fd5b6000815180845260005b81811015610e3d57602081850181015186830182015201610e21565b506000602082860101526020601f19601f83011685010191505092915050565b6001600160401b0383168152604060208201526000825160a06040840152610e8860e0840182610e17565b90506020840151603f19848303016060850152610ea58282610e17565b6040860151858203603f19016080870152805180835260209182019450600093509101905b80831015610f0157835180516001600160a01b03168352602090810151818401529093019260019290920191604090910190610eca565b5060608601516001600160a01b031660a08601526080860151858203603f190160c08701529250610f328184610e17565b979650505050505050565b600060208284031215610f4f57600080fd5b505191905056fea264697066735822122039d4f00e0bc4d37cadd1a103544cec8d58f1b326eb6b1aa3d56301a8b84964fb64736f6c634300081c0033",
  "devdoc": {
    "details": "A cross-chain token bridge using Chainlink CCIP to transfer WBTC between chains",
    "errors": {
      "OwnableInvalidOwner(address)": [
        {
          "details": "The owner is not a valid owner account. (eg. `address(0)`)"
        }
      ],
      "OwnableUnauthorizedAccount(address)": [
        {
          "details": "The caller account is not authorized to perform an operation."
        }
      ],
      "ReentrancyGuardReentrantCall()": [
        {
          "details": "Unauthorized reentrant call."
        }
      ],
      "SafeERC20FailedOperation(address)": [
        {
          "details": "An operation with an ERC-20 token failed."
        }
      ]
    },
    "kind": "dev",
    "methods": {
      "addSupportedChain(uint64)": {
        "details": "Add a supported destination chain",
        "params": {
          "chainSelector": "The chain selector for the destination chain"
        }
      },
      "ccipReceive((bytes32,uint64,bytes,bytes,(address,uint256)[]))": {
        "details": "Handle receiving tokens from another chain through CCIP",
        "params": {
          "message": "The CCIP message containing the token transfer details"
        }
      },
      "owner()": {
        "details": "Returns the address of the current owner."
      },
      "removeSupportedChain(uint64)": {
        "details": "Remove a supported destination chain",
        "params": {
          "chainSelector": "The chain selector for the destination chain"
        }
      },
      "renounceOwnership()": {
        "details": "Leaves the contract without owner. It will not be possible to call `onlyOwner` functions. Can only be called by the current owner. NOTE: Renouncing ownership will leave the contract without an owner, thereby disabling any functionality that is only available to the owner."
      },
      "transferOwnership(address)": {
        "details": "Transfers ownership of the contract to a new account (`newOwner`). Can only be called by the current owner."
      },
      "transferTokens(uint64,address,address,uint256)": {
        "details": "Transfer tokens to another chain",
        "params": {
          "amount": "The amount of tokens to transfer",
          "destinationChainSelector": "The chain selector for the destination chain",
          "receiver": "The address of the receiver on the destination chain",
          "token": "The address of the token to transfer"
        },
        "returns": {
          "messageId": "The ID of the CCIP message"
        }
      }
    },
    "title": "BitPesaTokenBridge",
    "version": 1
  },
  "userdoc": {
    "kind": "user",
    "methods": {},
    "version": 1
  },
  "storageLayout": {
    "storage": [
      {
        "astId": 1221,
        "contract": "contracts/BitPesaTokenBridge.sol:BitPesaTokenBridge",
        "label": "_status",
        "offset": 0,
        "slot": "0",
        "type": "t_uint256"
      },
      {
        "astId": 409,
        "contract": "contracts/BitPesaTokenBridge.sol:BitPesaTokenBridge",
        "label": "_owner",
        "offset": 0,
        "slot": "1",
        "type": "t_address"
      },
      {
        "astId": 2572,
        "contract": "contracts/BitPesaTokenBridge.sol:BitPesaTokenBridge",
        "label": "wbtcAddress",
        "offset": 0,
        "slot": "2",
        "type": "t_address"
      },
      {
        "astId": 2576,
        "contract": "contracts/BitPesaTokenBridge.sol:BitPesaTokenBridge",
        "label": "supportedChains",
        "offset": 0,
        "slot": "3",
        "type": "t_mapping(t_uint64,t_bool)"
      }
    ],
    "types": {
      "t_address": {
        "encoding": "inplace",
        "label": "address",
        "numberOfBytes": "20"
      },
      "t_bool": {
        "encoding": "inplace",
        "label": "bool",
        "numberOfBytes": "1"
      },
      "t_mapping(t_uint64,t_bool)": {
        "encoding": "mapping",
        "key": "t_uint64",
        "label": "mapping(uint64 => bool)",
        "numberOfBytes": "32",
        "value": "t_bool"
      },
      "t_uint256": {
        "encoding": "inplace",
        "label": "uint256",
        "numberOfBytes": "32"
      },
      "t_uint64": {
        "encoding": "inplace",
        "label": "uint64",
        "numberOfBytes": "8"
      }
    }
  }
}