{
  "address": "0xa77eA5c2aBF21b9AfF0dA44B42AcA35E4d95285a",
  "abi": [
    {
      "inputs": [
        {
          "internalType": "address",
          "name": "_wbtcAddress",
          "type": "address"
        },
        {
          "internalType": "address",
          "name": "_stablecoinAddress",
          "type": "address"
        },
        {
          "internalType": "address",
          "name": "_btcUsdPriceFeed",
          "type": "address"
        }
      ],
      "stateMutability": "nonpayable",
      "type": "constructor"
    },
    {
      "inputs": [
        {
          "internalType": "address",
          "name": "owner",
          "type": "address"
        }
      ],
      "name": "OwnableInvalidOwner",
      "type": "error"
    },
    {
      "inputs": [
        {
          "internalType": "address",
          "name": "account",
          "type": "address"
        }
      ],
      "name": "OwnableUnauthorizedAccount",
      "type": "error"
    },
    {
      "inputs": [],
      "name": "ReentrancyGuardReentrantCall",
      "type": "error"
    },
    {
      "inputs": [
        {
          "internalType": "address",
          "name": "token",
          "type": "address"
        }
      ],
      "name": "SafeERC20FailedOperation",
      "type": "error"
    },
    {
      "anonymous": false,
      "inputs": [
        {
          "indexed": false,
          "internalType": "uint256",
          "name": "oldRatio",
          "type": "uint256"
        },
        {
          "indexed": false,
          "internalType": "uint256",
          "name": "newRatio",
          "type": "uint256"
        }
      ],
      "name": "CollateralRatioUpdated",
      "type": "event"
    },
    {
      "anonymous": false,
      "inputs": [
        {
          "indexed": true,
          "internalType": "address",
          "name": "user",
          "type": "address"
        },
        {
          "indexed": false,
          "internalType": "uint256",
          "name": "amount",
          "type": "uint256"
        }
      ],
      "name": "Deposit",
      "type": "event"
    },
    {
      "anonymous": false,
      "inputs": [
        {
          "indexed": true,
          "internalType": "uint256",
          "name": "loanId",
          "type": "uint256"
        },
        {
          "indexed": true,
          "internalType": "address",
          "name": "borrower",
          "type": "address"
        },
        {
          "indexed": false,
          "internalType": "uint256",
          "name": "collateralAmount",
          "type": "uint256"
        },
        {
          "indexed": false,
          "internalType": "uint256",
          "name": "loanAmount",
          "type": "uint256"
        }
      ],
      "name": "LoanCreated",
      "type": "event"
    },
    {
      "anonymous": false,
      "inputs": [
        {
          "indexed": true,
          "internalType": "uint256",
          "name": "loanId",
          "type": "uint256"
        },
        {
          "indexed": true,
          "internalType": "address",
          "name": "borrower",
          "type": "address"
        },
        {
          "indexed": true,
          "internalType": "address",
          "name": "liquidator",
          "type": "address"
        },
        {
          "indexed": false,
          "internalType": "uint256",
          "name": "collateralLiquidated",
          "type": "uint256"
        }
      ],
      "name": "LoanLiquidated",
      "type": "event"
    },
    {
      "anonymous": false,
      "inputs": [
        {
          "indexed": true,
          "internalType": "uint256",
          "name": "loanId",
          "type": "uint256"
        },
        {
          "indexed": true,
          "internalType": "address",
          "name": "borrower",
          "type": "address"
        },
        {
          "indexed": false,
          "internalType": "uint256",
          "name": "repaidAmount",
          "type": "uint256"
        },
        {
          "indexed": false,
          "internalType": "uint256",
          "name": "interestPaid",
          "type": "uint256"
        }
      ],
      "name": "LoanRepaid",
      "type": "event"
    },
    {
      "anonymous": false,
      "inputs": [
        {
          "indexed": true,
          "internalType": "address",
          "name": "previousOwner",
          "type": "address"
        },
        {
          "indexed": true,
          "internalType": "address",
          "name": "newOwner",
          "type": "address"
        }
      ],
      "name": "OwnershipTransferred",
      "type": "event"
    },
    {
      "anonymous": false,
      "inputs": [
        {
          "indexed": true,
          "internalType": "address",
          "name": "user",
          "type": "address"
        },
        {
          "indexed": false,
          "internalType": "uint256",
          "name": "amount",
          "type": "uint256"
        }
      ],
      "name": "Withdraw",
      "type": "event"
    },
    {
      "inputs": [],
      "name": "COLLATERAL_RATIO_DENOMINATOR",
      "outputs": [
        {
          "internalType": "uint256",
          "name": "",
          "type": "uint256"
        }
      ],
      "stateMutability": "view",
      "type": "function"
    },
    {
      "inputs": [
        {
          "internalType": "uint256",
          "name": "amount",
          "type": "uint256"
        }
      ],
      "name": "addLiquidity",
      "outputs": [],
      "stateMutability": "nonpayable",
      "type": "function"
    },
    {
      "inputs": [],
      "name": "borrowFeePercent",
      "outputs": [
        {
          "internalType": "uint256",
          "name": "",
          "type": "uint256"
        }
      ],
      "stateMutability": "view",
      "type": "function"
    },
    {
      "inputs": [],
      "name": "btcUsdPriceFeed",
      "outputs": [
        {
          "internalType": "contract AggregatorV3Interface",
          "name": "",
          "type": "address"
        }
      ],
      "stateMutability": "view",
      "type": "function"
    },
    {
      "inputs": [
        {
          "internalType": "uint256",
          "name": "loanId",
          "type": "uint256"
        }
      ],
      "name": "calculateInterest",
      "outputs": [
        {
          "internalType": "uint256",
          "name": "",
          "type": "uint256"
        }
      ],
      "stateMutability": "view",
      "type": "function"
    },
    {
      "inputs": [
        {
          "internalType": "uint256",
          "name": "wbtcAmount",
          "type": "uint256"
        }
      ],
      "name": "calculateUsdValue",
      "outputs": [
        {
          "internalType": "uint256",
          "name": "",
          "type": "uint256"
        }
      ],
      "stateMutability": "view",
      "type": "function"
    },
    {
      "inputs": [
        {
          "internalType": "bytes",
          "name": "",
          "type": "bytes"
        }
      ],
      "name": "checkUpkeep",
      "outputs": [
        {
          "internalType": "bool",
          "name": "upkeepNeeded",
          "type": "bool"
        },
        {
          "internalType": "bytes",
          "name": "performData",
          "type": "bytes"
        }
      ],
      "stateMutability": "view",
      "type": "function"
    },
    {
      "inputs": [
        {
          "internalType": "uint256",
          "name": "collateralAmount",
          "type": "uint256"
        },
        {
          "internalType": "uint256",
          "name": "loanAmount",
          "type": "uint256"
        },
        {
          "internalType": "uint256",
          "name": "durationDays",
          "type": "uint256"
        }
      ],
      "name": "createLoan",
      "outputs": [],
      "stateMutability": "nonpayable",
      "type": "function"
    },
    {
      "inputs": [
        {
          "internalType": "uint256",
          "name": "amount",
          "type": "uint256"
        }
      ],
      "name": "deposit",
      "outputs": [],
      "stateMutability": "nonpayable",
      "type": "function"
    },
    {
      "inputs": [],
      "name": "getBtcUsdPrice",
      "outputs": [
        {
          "internalType": "uint256",
          "name": "",
          "type": "uint256"
        }
      ],
      "stateMutability": "view",
      "type": "function"
    },
    {
      "inputs": [],
      "name": "interestRatePerYear",
      "outputs": [
        {
          "internalType": "uint256",
          "name": "",
          "type": "uint256"
        }
      ],
      "stateMutability": "view",
      "type": "function"
    },
    {
      "inputs": [
        {
          "internalType": "uint256",
          "name": "loanId",
          "type": "uint256"
        }
      ],
      "name": "liquidateLoan",
      "outputs": [],
      "stateMutability": "nonpayable",
      "type": "function"
    },
    {
      "inputs": [],
      "name": "liquidationThreshold",
      "outputs": [
        {
          "internalType": "uint256",
          "name": "",
          "type": "uint256"
        }
      ],
      "stateMutability": "view",
      "type": "function"
    },
    {
      "inputs": [
        {
          "internalType": "uint256",
          "name": "",
          "type": "uint256"
        }
      ],
      "name": "loans",
      "outputs": [
        {
          "internalType": "uint256",
          "name": "id",
          "type": "uint256"
        },
        {
          "internalType": "address",
          "name": "borrower",
          "type": "address"
        },
        {
          "internalType": "uint256",
          "name": "collateralAmount",
          "type": "uint256"
        },
        {
          "internalType": "uint256",
          "name": "loanAmount",
          "type": "uint256"
        },
        {
          "internalType": "uint256",
          "name": "startTimestamp",
          "type": "uint256"
        },
        {
          "internalType": "uint256",
          "name": "endTimestamp",
          "type": "uint256"
        },
        {
          "internalType": "uint256",
          "name": "interestRate",
          "type": "uint256"
        },
        {
          "internalType": "bool",
          "name": "active",
          "type": "bool"
        },
        {
          "internalType": "bool",
          "name": "liquidated",
          "type": "bool"
        },
        {
          "internalType": "uint256",
          "name": "lastInterestCalculation",
          "type": "uint256"
        }
      ],
      "stateMutability": "view",
      "type": "function"
    },
    {
      "inputs": [],
      "name": "maxLoanDurationDays",
      "outputs": [
        {
          "internalType": "uint256",
          "name": "",
          "type": "uint256"
        }
      ],
      "stateMutability": "view",
      "type": "function"
    },
    {
      "inputs": [],
      "name": "nextLoanId",
      "outputs": [
        {
          "internalType": "uint256",
          "name": "",
          "type": "uint256"
        }
      ],
      "stateMutability": "view",
      "type": "function"
    },
    {
      "inputs": [],
      "name": "owner",
      "outputs": [
        {
          "internalType": "address",
          "name": "",
          "type": "address"
        }
      ],
      "stateMutability": "view",
      "type": "function"
    },
    {
      "inputs": [
        {
          "internalType": "bytes",
          "name": "performData",
          "type": "bytes"
        }
      ],
      "name": "performUpkeep",
      "outputs": [],
      "stateMutability": "nonpayable",
      "type": "function"
    },
    {
      "inputs": [],
      "name": "platformStablecoinBalance",
      "outputs": [
        {
          "internalType": "uint256",
          "name": "",
          "type": "uint256"
        }
      ],
      "stateMutability": "view",
      "type": "function"
    },
    {
      "inputs": [],
      "name": "protocolFeeBalance",
      "outputs": [
        {
          "internalType": "uint256",
          "name": "",
          "type": "uint256"
        }
      ],
      "stateMutability": "view",
      "type": "function"
    },
    {
      "inputs": [],
      "name": "renounceOwnership",
      "outputs": [],
      "stateMutability": "nonpayable",
      "type": "function"
    },
    {
      "inputs": [
        {
          "internalType": "uint256",
          "name": "loanId",
          "type": "uint256"
        },
        {
          "internalType": "uint256",
          "name": "repaymentAmount",
          "type": "uint256"
        }
      ],
      "name": "repayLoan",
      "outputs": [],
      "stateMutability": "nonpayable",
      "type": "function"
    },
    {
      "inputs": [],
      "name": "requiredCollateralRatio",
      "outputs": [
        {
          "internalType": "uint256",
          "name": "",
          "type": "uint256"
        }
      ],
      "stateMutability": "view",
      "type": "function"
    },
    {
      "inputs": [
        {
          "internalType": "uint256",
          "name": "loanId",
          "type": "uint256"
        }
      ],
      "name": "shouldLiquidate",
      "outputs": [
        {
          "internalType": "bool",
          "name": "",
          "type": "bool"
        }
      ],
      "stateMutability": "view",
      "type": "function"
    },
    {
      "inputs": [],
      "name": "stablecoinAddress",
      "outputs": [
        {
          "internalType": "address",
          "name": "",
          "type": "address"
        }
      ],
      "stateMutability": "view",
      "type": "function"
    },
    {
      "inputs": [],
      "name": "totalCollateralLocked",
      "outputs": [
        {
          "internalType": "uint256",
          "name": "",
          "type": "uint256"
        }
      ],
      "stateMutability": "view",
      "type": "function"
    },
    {
      "inputs": [],
      "name": "totalLoansOutstanding",
      "outputs": [
        {
          "internalType": "uint256",
          "name": "",
          "type": "uint256"
        }
      ],
      "stateMutability": "view",
      "type": "function"
    },
    {
      "inputs": [
        {
          "internalType": "address",
          "name": "newOwner",
          "type": "address"
        }
      ],
      "name": "transferOwnership",
      "outputs": [],
      "stateMutability": "nonpayable",
      "type": "function"
    },
    {
      "inputs": [
        {
          "internalType": "uint256",
          "name": "newRatio",
          "type": "uint256"
        }
      ],
      "name": "updateCollateralRatio",
      "outputs": [],
      "stateMutability": "nonpayable",
      "type": "function"
    },
    {
      "inputs": [
        {
          "internalType": "address",
          "name": "",
          "type": "address"
        }
      ],
      "name": "userCollateralBalance",
      "outputs": [
        {
          "internalType": "uint256",
          "name": "",
          "type": "uint256"
        }
      ],
      "stateMutability": "view",
      "type": "function"
    },
    {
      "inputs": [],
      "name": "wbtcAddress",
      "outputs": [
        {
          "internalType": "address",
          "name": "",
          "type": "address"
        }
      ],
      "stateMutability": "view",
      "type": "function"
    },
    {
      "inputs": [
        {
          "internalType": "uint256",
          "name": "amount",
          "type": "uint256"
        }
      ],
      "name": "withdraw",
      "outputs": [],
      "stateMutability": "nonpayable",
      "type": "function"
    },
    {
      "inputs": [
        {
          "internalType": "uint256",
          "name": "amount",
          "type": "uint256"
        }
      ],
      "name": "withdrawFees",
      "outputs": [],
      "stateMutability": "nonpayable",
      "type": "function"
    }
  ],
  "transactionHash": "0x0b1cc5a553eb1fbea3db74d2d19773871e4b90ae94f201c6dda45f1a94141b4b",
  "args": [
    "0x50b7545627a5162F82A992c33b87aDc75187B218",
    "0x5425890298aed601595a70AB815c96711a31Bc65",
    "0x31CF013A08c6Ac228C94551d535d5BAfE19c602a"
  ],
  "numDeployments": 1,
  "solcInputHash": "ba8c400a2b1aabcd785e89f90ece9ca0",
  "bytecode": "0x60806040526096600555607d6006556001600755601e6008556101f460095534801561002a57600080fd5b50604051611d4d380380611d4d8339810160408190526100499161012e565b6001600055338061007457604051631e4fbdf760e01b81526000600482015260240160405180910390fd5b61007d816100c0565b50600280546001600160a01b039485166001600160a01b031991821617909155600380549385169382169390931790925560048054919093169116179055610171565b600180546001600160a01b038381166001600160a01b0319831681179093556040519116919082907f8be0079c531659141344cd1fd0a4f28419497f9722a3daafe3b4186f6b6457e090600090a35050565b80516001600160a01b038116811461012957600080fd5b919050565b60008060006060848603121561014357600080fd5b61014c84610112565b925061015a60208501610112565b915061016860408501610112565b90509250925092565b611bcd806101806000396000f3fe608060405234801561001057600080fd5b50600436106101fb5760003560e01c80638d404e821161011a578063bb822981116100ad578063e1ec3c681161007c578063e1ec3c6814610403578063ed80c850146104c9578063f131203a146104d2578063f2fde38b146104db578063f7681ddd146104ee57600080fd5b8063bb822981146103bc578063bc174d36146103c5578063ccdd9f5d146103e8578063d81d4484146103fb57600080fd5b8063a85b7715116100e9578063a85b77151461036d578063b40db21214610376578063b5af306214610389578063b6b55f25146103a957600080fd5b80638d404e82146103235780638da5cb5b14610336578063904b513b14610347578063a57475e01461035a57600080fd5b8063615737ef11610192578063715018a611610161578063715018a6146102ec5780637992ec48146102f457806387c51459146103075780638a700b531461031057600080fd5b8063615737ef1461028557806361a2ac39146102b057806364b60700146102c35780636e04ff0d146102cb57600080fd5b80634585e33b116101ce5780634585e33b1461024357806351c6590a146102565780635e318e0714610269578063608526341461027c57600080fd5b80630a22d68c146102005780632e1a7d4d1461021c57806335d1e920146102315780634031234c1461023a575b600080fd5b61020960105481565b6040519081526020015b60405180910390f35b61022f61022a3660046117cb565b6104f7565b005b610209600d5481565b61020960065481565b61022f6102513660046117e4565b610701565b61022f6102643660046117cb565b61080b565b61022f6102773660046117cb565b61085d565b61020960085481565b600354610298906001600160a01b031681565b6040516001600160a01b039091168152602001610213565b600254610298906001600160a01b031681565b61020961090a565b6102de6102d93660046117e4565b6109c2565b604051610213929190611858565b61022f610b44565b61022f6103023660046117cb565b610b58565b610209600b5481565b61022f61031e3660046118af565b610c6a565b600454610298906001600160a01b031681565b6001546001600160a01b0316610298565b61022f6103553660046118d1565b610e33565b6102096103683660046117cb565b611290565b61020960075481565b6102096103843660046117cb565b611332565b6102096103973660046118fd565b600c6020526000908152604090205481565b61022f6103b73660046117cb565b61135f565b61020960095481565b6103d86103d33660046117cb565b61141b565b6040519015158152602001610213565b61022f6103f63660046117cb565b6114ad565b610209606481565b6104736104113660046117cb565b600a6020526000908152604090208054600182015460028301546003840154600485015460058601546006870154600788015460089098015496976001600160a01b03909616969495939492939192909160ff8082169261010090920416908a565b604080519a8b526001600160a01b0390991660208b0152978901969096526060880194909452608087019290925260a086015260c0850152151560e0840152151561010083015261012082015261014001610213565b610209600e5481565b610209600f5481565b61022f6104e93660046118fd565b6115de565b61020960055481565b6104ff611619565b600081116105285760405162461bcd60e51b815260040161051f90611926565b60405180910390fd5b336000908152600c602052604090205481111561057e5760405162461bcd60e51b8152602060048201526014602482015273496e73756666696369656e742062616c616e636560601b604482015260640161051f565b6000805b600b548110156105f2576000818152600a60205260409020600101546001600160a01b0316331480156105c657506000818152600a602052604090206007015460ff165b156105ea576000818152600a60205260409020600201546105e79083611971565b91505b600101610582565b50336000908152600c6020526040902054829061061090839061198a565b101561066a5760405162461bcd60e51b8152602060048201526024808201527f436f6c6c61746572616c206973206c6f636b656420696e20616374697665206c6044820152636f616e7360e01b606482015260840161051f565b336000908152600c60205260408120805484929061068990849061198a565b9250508190555081600d60008282546106a2919061198a565b90915550506002546106be906001600160a01b03163384611643565b60405182815233907f884edad9ce6fa2440d8a54cc123490eb96d2768479d49ff9c7366125a94243649060200160405180910390a2506106fe6001600055565b50565b8015610807576000610715828401846119b3565b905060005b815181101561080457600082828151811061073757610737611a80565b6020026020010151905061074a8161141b565b156107fb576000818152600a60205260409020600781015460ff16801561077b57506007810154610100900460ff16155b156107f95760078101805461ffff19166101001790556003810154600e80546000906107a890849061198a565b90915550506001810154600282015460405190815230916001600160a01b03169084907fe4b3cb24da49cbaa1989989a720518b9c8c12f4a6e0d848853745d9271104b0f9060200160405180910390a45b505b5060010161071a565b50505b5050565b6000811161082b5760405162461bcd60e51b815260040161051f90611926565b600354610843906001600160a01b03163330846116a2565b80600f60008282546108559190611971565b909155505050565b6108656116db565b6010548111156108b75760405162461bcd60e51b815260206004820152601860248201527f496e73756666696369656e74206665652062616c616e63650000000000000000604482015260640161051f565b80601060008282546108c9919061198a565b9250508190555080600f60008282546108e2919061198a565b90915550506001546106fe906001600160a01b03166003546001600160a01b03169083611643565b6004805460408051633fabe5a360e21b8152905160009384936001600160a01b03169263feaf968c928183019260a0928290030181865afa158015610953573d6000803e3d6000fd5b505050506040513d601f19601f820116820180604052508101906109779190611ab0565b505050915050600081136109bd5760405162461bcd60e51b815260206004820152600d60248201526c496e76616c696420707269636560981b604482015260640161051f565b919050565b600060606000600b5467ffffffffffffffff8111156109e3576109e361199d565b604051908082528060200260200182016040528015610a0c578160200160208202803683370190505b5090506000805b600b54811015610a5f57610a268161141b565b15610a575780838381518110610a3e57610a3e611a80565b602090810291909101015281610a5381611b02565b9250505b600101610a13565b508015610b24576001935060008167ffffffffffffffff811115610a8557610a8561199d565b604051908082528060200260200182016040528015610aae578160200160208202803683370190505b50905060005b82811015610afb57838181518110610ace57610ace611a80565b6020026020010151828281518110610ae857610ae8611a80565b6020908102919091010152600101610ab4565b5080604051602001610b0d9190611b1b565b604051602081830303815290604052935050610b3b565b600093506040518060200160405280600081525092505b50509250929050565b610b4c6116db565b610b566000611708565b565b610b606116db565b60648111610bc35760405162461bcd60e51b815260206004820152602a60248201527f436f6c6c61746572616c20726174696f206d7573742062652067726561746572604482015269207468616e203130302560b01b606482015260840161051f565b61012c811115610c255760405162461bcd60e51b815260206004820152602760248201527f436f6c6c61746572616c20726174696f206d757374206265206c657373207468604482015266616e203330302560c81b606482015260840161051f565b600580549082905560408051828152602081018490527fea851fc89ebccda62380b76fc8e8317f0bcd4d75ea908cf501bd2ebc6ac1c8f2910160405180910390a15050565b610c72611619565b6000828152600a60205260409020600781015460ff16610cc95760405162461bcd60e51b81526020600482015260126024820152714c6f616e206973206e6f742061637469766560701b604482015260640161051f565b60018101546001600160a01b03163314610d185760405162461bcd60e51b815260206004820152601060248201526f2737ba103a3432903137b93937bbb2b960811b604482015260640161051f565b6000610d2384611290565b90506000818360030154610d379190611971565b905080841015610d895760405162461bcd60e51b815260206004820152601d60248201527f496e73756666696369656e742072657061796d656e7420616d6f756e74000000604482015260640161051f565b600354610da1906001600160a01b03163330876116a2565b60078301805460ff19169055426008840155600f8054859190600090610dc8908490611971565b90915550506003830154600e8054600090610de490849061198a565b90915550506040805185815260208101849052339187917f553c9087bff5b534e499a66dac3fa9db2962cd252ea01165239755836ae5345e910160405180910390a35050506108076001600055565b610e3b611619565b60008311610e975760405162461bcd60e51b8152602060048201526024808201527f436f6c6c61746572616c206d7573742062652067726561746572207468616e206044820152637a65726f60e01b606482015260840161051f565b60008211610ef55760405162461bcd60e51b815260206004820152602560248201527f4c6f616e20616d6f756e74206d7573742062652067726561746572207468616e604482015264207a65726f60d81b606482015260840161051f565b600081118015610f0757506008548111155b610f4b5760405162461bcd60e51b815260206004820152601560248201527424b73b30b634b2103637b0b710323ab930ba34b7b760591b604482015260640161051f565b336000908152600c6020526040902054831115610faa5760405162461bcd60e51b815260206004820152601f60248201527f496e73756666696369656e7420636f6c6c61746572616c2062616c616e636500604482015260640161051f565b6000610fb584611332565b90506000600554606483610fc99190611b5e565b610fd39190611b75565b9050808411156110315760405162461bcd60e51b8152602060048201526024808201527f4c6f616e20616d6f756e74206578636565647320636f6c6c61746572616c20726044820152636174696f60e01b606482015260840161051f565b83600f5410156110835760405162461bcd60e51b815260206004820152601f60248201527f496e73756666696369656e7420706c6174666f726d206c697175696469747900604482015260640161051f565b60006064600754866110959190611b5e565b61109f9190611b75565b905060006110ad828761198a565b600b805491925060009190826110c283611b02565b919050559050604051806101400160405280828152602001336001600160a01b03168152602001898152602001888152602001428152602001876201518061110a9190611b5e565b6111149042611971565b8152600954602080830191909152600160408084018290526000606080860182905242608096870152878252600a8552828220875181559487015193850180546001600160a01b039095166001600160a01b03199095169490941790935590850151600284015590840151600383015591830151600482015560a0830151600582015560c0830151600682015560e08301516007820180546101008087015115150261ff00199315159390931661ffff199091161791909117905561012090920151600890920191909155600f80548992906111f190849061198a565b9250508190555086600e600082825461120a9190611971565b9250508190555082601060008282546112239190611971565b909155505060035461123f906001600160a01b03163384611643565b6040805189815260208101849052339183917f3373919ad665425d2cddb4072830e5935b6ee308440fa99b23383648da473bc0910160405180910390a3505050505061128b6001600055565b505050565b6000818152600a60205260408120600781015460ff166112e75760405162461bcd60e51b81526020600482015260126024820152714c6f616e206973206e6f742061637469766560701b604482015260640161051f565b60008160080154426112f9919061198a565b905064496cebb80081836006015484600301546113169190611b5e565b6113209190611b5e565b61132a9190611b75565b949350505050565b60008061133d61090a565b90506305f5e10061134e8285611b5e565b6113589190611b75565b9392505050565b611367611619565b600081116113875760405162461bcd60e51b815260040161051f90611926565b60025461139f906001600160a01b03163330846116a2565b336000908152600c6020526040812080548392906113be908490611971565b9250508190555080600d60008282546113d79190611971565b909155505060405181815233907fe1fffcc4923d04b559f4d29a8bfc6cda04eb5b0d3c460751c2402c5c5cc9109c9060200160405180910390a26106fe6001600055565b6000818152600a60205260408120600781015460ff16158061144657506007810154610100900460ff165b156114545750600092915050565b60006114638260020154611332565b9050600061147085611290565b905060008184600301546114849190611971565b9050600081611494606486611b5e565b61149e9190611b75565b60065411979650505050505050565b6114b5611619565b6114be8161141b565b6115165760405162461bcd60e51b8152602060048201526024808201527f4c6f616e206973206e6f7420656c696769626c6520666f72206c6971756964616044820152633a34b7b760e11b606482015260840161051f565b6000818152600a602052604081209061152e83611290565b905060008183600301546115429190611971565b905060006115538460020154611332565b60078501805461ffff19166101001790556003850154600e8054929350909160009061158090849061198a565b90915550506001840154600285015460405190815233916001600160a01b03169087907fe4b3cb24da49cbaa1989989a720518b9c8c12f4a6e0d848853745d9271104b0f9060200160405180910390a4505050506106fe6001600055565b6115e66116db565b6001600160a01b03811661161057604051631e4fbdf760e01b81526000600482015260240161051f565b6106fe81611708565b60026000540361163c57604051633ee5aeb560e01b815260040160405180910390fd5b6002600055565b6040516001600160a01b0383811660248301526044820183905261128b91859182169063a9059cbb906064015b604051602081830303815290604052915060e01b6020820180516001600160e01b03838183161783525050505061175a565b6040516001600160a01b0384811660248301528381166044830152606482018390526108049186918216906323b872dd90608401611670565b6001546001600160a01b03163314610b565760405163118cdaa760e01b815233600482015260240161051f565b600180546001600160a01b038381166001600160a01b0319831681179093556040519116919082907f8be0079c531659141344cd1fd0a4f28419497f9722a3daafe3b4186f6b6457e090600090a35050565b600080602060008451602086016000885af18061177d576040513d6000823e3d81fd5b50506000513d915081156117955780600114156117a2565b6001600160a01b0384163b155b1561080457604051635274afe760e01b81526001600160a01b038516600482015260240161051f565b6000602082840312156117dd57600080fd5b5035919050565b600080602083850312156117f757600080fd5b823567ffffffffffffffff81111561180e57600080fd5b8301601f8101851361181f57600080fd5b803567ffffffffffffffff81111561183657600080fd5b85602082840101111561184857600080fd5b6020919091019590945092505050565b8215158152604060208201526000825180604084015260005b8181101561188e5760208186018101516060868401015201611871565b506000606082850101526060601f19601f8301168401019150509392505050565b600080604083850312156118c257600080fd5b50508035926020909101359150565b6000806000606084860312156118e657600080fd5b505081359360208301359350604090920135919050565b60006020828403121561190f57600080fd5b81356001600160a01b038116811461135857600080fd5b6020808252818101527f416d6f756e74206d7573742062652067726561746572207468616e207a65726f604082015260600190565b634e487b7160e01b600052601160045260246000fd5b808201808211156119845761198461195b565b92915050565b818103818111156119845761198461195b565b634e487b7160e01b600052604160045260246000fd5b6000602082840312156119c557600080fd5b813567ffffffffffffffff8111156119dc57600080fd5b8201601f810184136119ed57600080fd5b803567ffffffffffffffff811115611a0757611a0761199d565b8060051b604051601f19603f830116810181811067ffffffffffffffff82111715611a3457611a3461199d565b604052918252602081840181019290810187841115611a5257600080fd5b6020850194505b83851015611a7557843580825260209586019590935001611a59565b509695505050505050565b634e487b7160e01b600052603260045260246000fd5b805169ffffffffffffffffffff811681146109bd57600080fd5b600080600080600060a08688031215611ac857600080fd5b611ad186611a96565b60208701516040880151606089015192975090955093509150611af660808701611a96565b90509295509295909350565b600060018201611b1457611b1461195b565b5060010190565b602080825282518282018190526000918401906040840190835b81811015611b53578351835260209384019390920191600101611b35565b509095945050505050565b80820281158282048414176119845761198461195b565b600082611b9257634e487b7160e01b600052601260045260246000fd5b50049056fea2646970667358221220c923e6d1009f666b61151b97e844c3888493c3ad04aa992206bf85b2bcea4a0764736f6c634300081c0033",
  "devdoc": {
    "details": "A DeFi platform that allows users to deposit WBTC as collateral and take loans in stablecoins Integrates Chainlink Price Feeds for accurate collateral valuation Uses Chainlink Automation for liquidation checks",
    "errors": {
      "OwnableInvalidOwner(address)": [
        {
          "details": "The owner is not a valid owner account. (eg. `address(0)`)"
        }
      ],
      "OwnableUnauthorizedAccount(address)": [
        {
          "details": "The caller account is not authorized to perform an operation."
        }
      ],
      "ReentrancyGuardReentrantCall()": [
        {
          "details": "Unauthorized reentrant call."
        }
      ],
      "SafeERC20FailedOperation(address)": [
        {
          "details": "An operation with an ERC-20 token failed."
        }
      ]
    },
    "kind": "dev",
    "methods": {
      "addLiquidity(uint256)": {
        "details": "Add liquidity to the platform's stablecoin balance",
        "params": {
          "amount": "Amount of stablecoin to add"
        }
      },
      "calculateInterest(uint256)": {
        "details": "Calculate interest accrued on a loan",
        "params": {
          "loanId": "ID of the loan"
        },
        "returns": {
          "_0": "Interest amount in stablecoin"
        }
      },
      "calculateUsdValue(uint256)": {
        "details": "Calculate the USD value of WBTC",
        "params": {
          "wbtcAmount": "Amount of WBTC (in wei)"
        },
        "returns": {
          "_0": "USD value with 8 decimal places"
        }
      },
      "checkUpkeep(bytes)": {
        "details": "Implementation for Chainlink Automation Checks if any loans need liquidation"
      },
      "constructor": {
        "params": {
          "_btcUsdPriceFeed": "Address of the Chainlink BTC/USD price feed",
          "_stablecoinAddress": "Address of the stablecoin used for loans",
          "_wbtcAddress": "Address of the WBTC token"
        }
      },
      "createLoan(uint256,uint256,uint256)": {
        "details": "Create a new loan backed by WBTC collateral",
        "params": {
          "collateralAmount": "Amount of WBTC to use as collateral (in wei)",
          "durationDays": "Duration of the loan in days",
          "loanAmount": "Amount of stablecoin to borrow"
        }
      },
      "deposit(uint256)": {
        "details": "Deposit WBTC as collateral",
        "params": {
          "amount": "Amount of WBTC to deposit (in wei)"
        }
      },
      "getBtcUsdPrice()": {
        "details": "Get the latest BTC/USD price from Chainlink",
        "returns": {
          "_0": "price in USD with 8 decimals"
        }
      },
      "liquidateLoan(uint256)": {
        "details": "Liquidate an undercollateralized loan",
        "params": {
          "loanId": "ID of the loan to liquidate"
        }
      },
      "owner()": {
        "details": "Returns the address of the current owner."
      },
      "performUpkeep(bytes)": {
        "details": "Implementation for Chainlink Automation Liquidates loans that need liquidation"
      },
      "renounceOwnership()": {
        "details": "Leaves the contract without owner. It will not be possible to call `onlyOwner` functions. Can only be called by the current owner. NOTE: Renouncing ownership will leave the contract without an owner, thereby disabling any functionality that is only available to the owner."
      },
      "repayLoan(uint256,uint256)": {
        "details": "Repay a loan and retrieve collateral",
        "params": {
          "loanId": "ID of the loan to repay",
          "repaymentAmount": "Amount of stablecoin to repay"
        }
      },
      "shouldLiquidate(uint256)": {
        "details": "Check if a loan needs liquidation based on current BTC/USD price",
        "params": {
          "loanId": "ID of the loan to check"
        },
        "returns": {
          "_0": "true if loan should be liquidated"
        }
      },
      "transferOwnership(address)": {
        "details": "Transfers ownership of the contract to a new account (`newOwner`). Can only be called by the current owner."
      },
      "updateCollateralRatio(uint256)": {
        "details": "Update the required collateral ratio",
        "params": {
          "newRatio": "New collateral ratio (e.g., 150 for 150%)"
        }
      },
      "withdraw(uint256)": {
        "details": "Withdraw WBTC collateral if not being used for active loans",
        "params": {
          "amount": "Amount of WBTC to withdraw (in wei)"
        }
      },
      "withdrawFees(uint256)": {
        "details": "Withdraw platform fees (owner only)",
        "params": {
          "amount": "Amount to withdraw"
        }
      }
    },
    "title": "BitPesa WBTC Lending Platform",
    "version": 1
  },
  "userdoc": {
    "kind": "user",
    "methods": {},
    "version": 1
  },
  "storageLayout": {
    "storage": [
      {
        "astId": 1221,
        "contract": "contracts/BitPesaLending.sol:BitPesaLending",
        "label": "_status",
        "offset": 0,
        "slot": "0",
        "type": "t_uint256"
      },
      {
        "astId": 409,
        "contract": "contracts/BitPesaLending.sol:BitPesaLending",
        "label": "_owner",
        "offset": 0,
        "slot": "1",
        "type": "t_address"
      },
      {
        "astId": 1312,
        "contract": "contracts/BitPesaLending.sol:BitPesaLending",
        "label": "wbtcAddress",
        "offset": 0,
        "slot": "2",
        "type": "t_address"
      },
      {
        "astId": 1314,
        "contract": "contracts/BitPesaLending.sol:BitPesaLending",
        "label": "stablecoinAddress",
        "offset": 0,
        "slot": "3",
        "type": "t_address"
      },
      {
        "astId": 1317,
        "contract": "contracts/BitPesaLending.sol:BitPesaLending",
        "label": "btcUsdPriceFeed",
        "offset": 0,
        "slot": "4",
        "type": "t_contract(AggregatorV3Interface)305"
      },
      {
        "astId": 1323,
        "contract": "contracts/BitPesaLending.sol:BitPesaLending",
        "label": "requiredCollateralRatio",
        "offset": 0,
        "slot": "5",
        "type": "t_uint256"
      },
      {
        "astId": 1326,
        "contract": "contracts/BitPesaLending.sol:BitPesaLending",
        "label": "liquidationThreshold",
        "offset": 0,
        "slot": "6",
        "type": "t_uint256"
      },
      {
        "astId": 1329,
        "contract": "contracts/BitPesaLending.sol:BitPesaLending",
        "label": "borrowFeePercent",
        "offset": 0,
        "slot": "7",
        "type": "t_uint256"
      },
      {
        "astId": 1332,
        "contract": "contracts/BitPesaLending.sol:BitPesaLending",
        "label": "maxLoanDurationDays",
        "offset": 0,
        "slot": "8",
        "type": "t_uint256"
      },
      {
        "astId": 1335,
        "contract": "contracts/BitPesaLending.sol:BitPesaLending",
        "label": "interestRatePerYear",
        "offset": 0,
        "slot": "9",
        "type": "t_uint256"
      },
      {
        "astId": 1361,
        "contract": "contracts/BitPesaLending.sol:BitPesaLending",
        "label": "loans",
        "offset": 0,
        "slot": "10",
        "type": "t_mapping(t_uint256,t_struct(Loan)1356_storage)"
      },
      {
        "astId": 1363,
        "contract": "contracts/BitPesaLending.sol:BitPesaLending",
        "label": "nextLoanId",
        "offset": 0,
        "slot": "11",
        "type": "t_uint256"
      },
      {
        "astId": 1367,
        "contract": "contracts/BitPesaLending.sol:BitPesaLending",
        "label": "userCollateralBalance",
        "offset": 0,
        "slot": "12",
        "type": "t_mapping(t_address,t_uint256)"
      },
      {
        "astId": 1369,
        "contract": "contracts/BitPesaLending.sol:BitPesaLending",
        "label": "totalCollateralLocked",
        "offset": 0,
        "slot": "13",
        "type": "t_uint256"
      },
      {
        "astId": 1371,
        "contract": "contracts/BitPesaLending.sol:BitPesaLending",
        "label": "totalLoansOutstanding",
        "offset": 0,
        "slot": "14",
        "type": "t_uint256"
      },
      {
        "astId": 1373,
        "contract": "contracts/BitPesaLending.sol:BitPesaLending",
        "label": "platformStablecoinBalance",
        "offset": 0,
        "slot": "15",
        "type": "t_uint256"
      },
      {
        "astId": 1375,
        "contract": "contracts/BitPesaLending.sol:BitPesaLending",
        "label": "protocolFeeBalance",
        "offset": 0,
        "slot": "16",
        "type": "t_uint256"
      }
    ],
    "types": {
      "t_address": {
        "encoding": "inplace",
        "label": "address",
        "numberOfBytes": "20"
      },
      "t_bool": {
        "encoding": "inplace",
        "label": "bool",
        "numberOfBytes": "1"
      },
      "t_contract(AggregatorV3Interface)305": {
        "encoding": "inplace",
        "label": "contract AggregatorV3Interface",
        "numberOfBytes": "20"
      },
      "t_mapping(t_address,t_uint256)": {
        "encoding": "mapping",
        "key": "t_address",
        "label": "mapping(address => uint256)",
        "numberOfBytes": "32",
        "value": "t_uint256"
      },
      "t_mapping(t_uint256,t_struct(Loan)1356_storage)": {
        "encoding": "mapping",
        "key": "t_uint256",
        "label": "mapping(uint256 => struct BitPesaLending.Loan)",
        "numberOfBytes": "32",
        "value": "t_struct(Loan)1356_storage"
      },
      "t_struct(Loan)1356_storage": {
        "encoding": "inplace",
        "label": "struct BitPesaLending.Loan",
        "members": [
          {
            "astId": 1337,
            "contract": "contracts/BitPesaLending.sol:BitPesaLending",
            "label": "id",
            "offset": 0,
            "slot": "0",
            "type": "t_uint256"
          },
          {
            "astId": 1339,
            "contract": "contracts/BitPesaLending.sol:BitPesaLending",
            "label": "borrower",
            "offset": 0,
            "slot": "1",
            "type": "t_address"
          },
          {
            "astId": 1341,
            "contract": "contracts/BitPesaLending.sol:BitPesaLending",
            "label": "collateralAmount",
            "offset": 0,
            "slot": "2",
            "type": "t_uint256"
          },
          {
            "astId": 1343,
            "contract": "contracts/BitPesaLending.sol:BitPesaLending",
            "label": "loanAmount",
            "offset": 0,
            "slot": "3",
            "type": "t_uint256"
          },
          {
            "astId": 1345,
            "contract": "contracts/BitPesaLending.sol:BitPesaLending",
            "label": "startTimestamp",
            "offset": 0,
            "slot": "4",
            "type": "t_uint256"
          },
          {
            "astId": 1347,
            "contract": "contracts/BitPesaLending.sol:BitPesaLending",
            "label": "endTimestamp",
            "offset": 0,
            "slot": "5",
            "type": "t_uint256"
          },
          {
            "astId": 1349,
            "contract": "contracts/BitPesaLending.sol:BitPesaLending",
            "label": "interestRate",
            "offset": 0,
            "slot": "6",
            "type": "t_uint256"
          },
          {
            "astId": 1351,
            "contract": "contracts/BitPesaLending.sol:BitPesaLending",
            "label": "active",
            "offset": 0,
            "slot": "7",
            "type": "t_bool"
          },
          {
            "astId": 1353,
            "contract": "contracts/BitPesaLending.sol:BitPesaLending",
            "label": "liquidated",
            "offset": 1,
            "slot": "7",
            "type": "t_bool"
          },
          {
            "astId": 1355,
            "contract": "contracts/BitPesaLending.sol:BitPesaLending",
            "label": "lastInterestCalculation",
            "offset": 0,
            "slot": "8",
            "type": "t_uint256"
          }
        ],
        "numberOfBytes": "288"
      },
      "t_uint256": {
        "encoding": "inplace",
        "label": "uint256",
        "numberOfBytes": "32"
      }
    }
  }
}